:100000000000012071030000590300005B030000A1
:100010005D0300005F0300006103000000000000BA
:10002000000000000000000000000000F1080000D7
:1000300065030000000000001509000069030000CE
:10004000593300006B0300006B0300006B030000DA
:100050006B0300006B030000ED3700006B03000032
:100060006B0300006B0300006B0300006B030000D8
:100070006B0300006B0300006B0300006B030000C8
:100080006B030000310E00006B0300006B030000E7
:100090006B0300006B0300006B0300006B030000A8
:1000A0006B0300006B0300006B0300006B03000098
:1000B0006B0300006B030000000000000000000064
:1000C0006B0300006B0300006B0300006B03000078
:1000D0006B0300006B0300006B03000000000000D6
:1000E0000000000000000000000000000000000010
:1000F0000000000000000000000000000000000000
:1001000000000000000000000000000000000000EF
:1001100000000000000000000000000000000000DF
:1001200000000000000000000000000000000000CF
:1001300000000000000000000000000000000000BF
:1001400000000000000000000000000000000000AF
:10015000000000000000000000000000000000009F
:10016000000000000000000000000000000000008F
:10017000000000000000000000000000000000007F
:10018000000000000000000000000000000000006F
:10019000000000000000000000000000000000005F
:1001A000000000000000000000000000000000004F
:1001B000000000000000000000000000000000003F
:1001C000000000000000000000000000000000002F
:1001D000000000000000000000000000000000001F
:1001E000000000000000000000000000000000000F
:1001F00000000000000000000000000000000000FF
:10020000344935480A1A02D0072291438D463349B2
:1002100033480A1A06D00722914381F30988022243
:1002200082F314882F483049304A00F041F83048B2
:100230003049314A00F03CF830483149314A00F049
:1002400037F831483149324A00F032F83148324902
:10025000324A00F02DF832483249334A00F028F88B
:1002600032483349334A00F023F8334833490022F7
:1002700000F029F832483349002200F024F83248CF
:100280003249091A04F068FE314A90471F48204954
:10029000884205D00268043003B4904703BCF7E7F6
:1002A00000208646EC46002000212A4A9047FEE7BF
:1002B000884207D0521A05D0037801300B70013103
:1002C000013AF9D17047884202D002700130FAE752
:1002D000704700000000012000E000200000012025
:1002E0000000012010580000000000202400002021
:1002F000CC030000CC0300006C4F0000105800003D
:1003000000000020000000206C4F00006C4F000037
:100310006C4F00006C4F00006C4F00006C4F0000F1
:100320006C4F00006C4F00000D5800003458000066
:10033000240000202400002024000020D0160020EB
:10034000D0160020D0160020D0160020D036002075
:100350009903000025390000FEE7FEE7FEE7FEE70F
:10036000FEE7FEE7FEE7FEE7FEE7FEE700F002B885
:10037000FFF7FCBF0F484FF00701884385460E4842
:1003800080470E48016841F470010160BFF34F8F50
:10039000BFF36F8FFFF734BF09480A490A4A884202
:1003A00007D0521A05D0037801300B700131013AA1
:1003B000F9D1704700000120F13F000088ED00E016
:0C03C0006C4F0000000000200000002036
:1003CC0000B583B00190019B1B68184600F0D7F86C
:1003DC000346002B04D105494FF4F67002F007FDDB
:1003EC004FF0A043184603B05DF804FB6C4F0000BF
:1003FC0000B585B00190084611461A4603468DF8A3
:10040C0003300B468DF8023013468DF8013001ABEA
:10041C001846FFF7D5FF03909DF803209DF8023096
:10042C005B001A439DF801309B001A439DF818306D
:10043C001B0242EA03019DF81C301B04019A19436C
:10044C00039B02F5E07243F8221000BF05B05DF883
:10045C0004FB00B585B003900023019300230093A7
:10046C000023012201210398FFF7C2FF00BF05B052
:10047C005DF804FB00B585B003900B468DF80B308E
:10048C009DF80B30002201920022009200220021E4
:10049C000398FFF7ADFF00BF05B05DF804FB00B596
:1004AC0085B0019001AB1846FFF78AFF0390019BC2
:1004BC00012202FA03F31946039800F04CF800BF2E
:1004CC0005B05DF804FB00B585B0019001AB184692
:1004DC00FFF776FF0390019B012202FA03F3194602
:1004EC00039800F042F800BF05B05DF804FB00B5BE
:1004FC0085B0019001AB1846FFF762FF0390039B98
:10050C00D3F804350293029BDA43019B012101FAD3
:10051C0003F31A40039BC3F80825019B01229A4060
:10052C00029B1A40039BC3F80C2500BF05B05DF875
:10053C0004FB00B583B001900091009B002B03D10C
:10054C000198FFF7C0FF02E00198FFF7A8FF00BF7A
:10055C0003B05DF804FB82B001900091019B009AFE
:10056C00C3F8082500BF02B0704782B0019000911B
:10057C00019B009AC3F80C2500BF02B0704784B0F1
:10058C000190019B5B09029300230393029B002BB8
:10059C0003D14FF0FF33039300BF019B03F01F0304
:1005AC000193039A019B22FA03F303F00103002B3E
:1005BC0014BF01230023DBB2184604B070470000BF
:1005CC0000B583B00190019B032B03D90749472049
:1005DC0002F00DFC064A019B13441B7801211846BE
:1005EC00FFF7A7FF00BF03B05DF804FB9C4F0000B2
:1005FC000850000000B583B00023019305E001987A
:10060C00FFF7DEFF019B01330193019B032BF6D90E
:10061C0000BF00BF03B05DF804FB000000B583B061
:10062C000190019B032B03D907495F2002F0DFFBEC
:10063C00064A019B13441B781846FFF758FF00BF6E
:10064C0003B05DF804FB00BF9C4F00000850000095
:10065C0000B583B00023019309E0094A019B1344C0
:10066C001B781846FFF7F5FE019B01330193019BA4
:10067C00032BF2D9FFF7BEFF00BF03B05DF804FBFC
:10068C000850000000B583B0002301930AE0094A2A
:10069C00019B13441B7803211846FFF7EBFE019BCB
:1006AC0001330193019B032BF1D900BF00BF03B0B1
:1006BC005DF804FB0C50000000B583B00190019B69
:1006CC0003F00103002B01D0FFF7C2FF019B03F0E5
:1006DC000203002B01D0FFF7D5FF00BF03B05DF87C
:1006EC0004FB000000B585B0019000230393019B2F
:1006FC0003F00703002B04D0019B23F007030833FE
:10070C00019301F06DFA164B1B68002B05D1154BAC
:10071C0023F007031A46124B1A60134B1A68019BFD
:10072C00134440F6F772934213D80F4B1A68019B8F
:10073C001A440D4B1B689A420BD9094B1A680A4B89
:10074C001B6813440393084B1A68019B1344064A15
:10075C00136001F085FA039B184605B05DF804FBA5
:10076C00281000202C0000202410002000B583B09D
:10077C000190019B002B03D00349832002F037FB2F
:10078C0000BF03B05DF804FB1050000082B0019074
:10079C00019B03F10802019B5A60019B4FF0FF3251
:1007AC009A60019B03F10802019BDA60019B03F143
:1007BC000802019B1A61019B00221A6000BF02B063
:1007CC00704782B00190019B00221A6100BF02B0F9
:1007DC00704784B001900091019B5B680393009B70
:1007EC00039A5A60039B9A68009B9A60039B9B68D0
:1007FC00009A5A60039B009A9A60009B019A1A61B6
:10080C00019B1B685A1C019B1A6000BF04B0704707
:10081C0084B001900091009B1B680293029BB3F182
:10082C00FF3F03D1019B1B6903930CE0019B083331
:10083C00039302E0039B5B680393039B5B681B6859
:10084C00029A9A42F6D2039B5A68009B5A60009B0C
:10085C005B68009A9A60009B039A9A60039B009ACB
:10086C005A60009B019A1A61019B1B685A1C019BE0
:10087C001A6000BF04B0704784B00190019B1B69E3
:10088C000393019B5B68019A92689A60019B9B6839
:10089C00019A52685A60039B5B68019A9A4203D191
:1008AC00019B9A68039B5A60019B00221A61039B6F
:1008BC001B685A1E039B1A60039B1B68184604B0E6
:1008CC00704700000648006880F3088862B661B67D
:1008DC00BFF34F8FBFF36F8F00DF00BF00BF00006F
:1008EC0000000000074B19680868B0E8F04F80F36F
:1008FC000988BFF36F8F4FF0000080F311887047A9
:10090C0000BF000048100020EFF30980BFF36F8F89
:10091C00154B1A681EF0100F08BF20ED108A20E945
:10092C00F04F10604DF8043D4FF0400080F31188FB
:10093C00BFF34F8FBFF36F8F01F0FEFA4FF0000043
:10094C0080F3118808BC19680868B0E8F04F1EF0F5
:10095C00100F08BFB0EC108A80F30988BFF36F8FBB
:10096C00704700BF00BF000048100020034BDB683D
:10097C001B0A03F007031846704700BF00ED00E0A8
:10098C0082B0034600918DF807309DF90730002B9B
:10099C000ADB009BDAB20C499DF907305201D2B246
:1009AC000B4483F800230BE0009BDAB207499DF857
:1009BC00073003F00F03043B5201D2B20B441A76FA
:1009CC0000BF02B0704700BF00E100E000ED00E0A6
:1009DC0084B0039002910192039B043B0393002388
:1009EC0043F080731A46039B1A60039B043B0393EA
:1009FC00029A039B1A60039B043B03930B4A039BD1
:100A0C001A60039B143B0393019A039B1A60039B8C
:100A1C00043B0393039B6FF002021A60039B203B81
:100A2C000393039B184604B0704700BF3D0A0000B7
:100A3C0000B583B0074B1B68B3F1FF3F03D00649E9
:100A4C009E2002F0D4F940230193019B83F311887B
:100A5C0000BFFEE72C1000209450000000B585B0BC
:100A6C00304B1B68304A934203D03049B02002F01F
:100A7C00BEF92F4B0393039B1B78DBB20293039BB2
:100A8C00FF221A70039B1B78DBB28DF807309DF8A0
:100A9C000730DBB203F00203DAB2264B1A70264B96
:100AAC0007221A600BE0244B1B68013B224A13609F
:100ABC009DF80730DBB25B00DBB28DF807309DF898
:100ACC000730DBB203F08003802BECD01A4B1B6891
:100ADC0003F00703184A1360029BDAB2039B1A70E7
:100AEC000F216FF00100FFF74BFF00F0E5F9134BFE
:100AFC0000221A6000F06EF8114B5B68104A43F04C
:100B0C0040435360074B1B69064A43F010031361C3
:100B1C00FFF7D8FEFFF78CFF0023184605B05DF8F1
:100B2C0004FB00BF00ED00E041C20F4194500000F7
:100B3C0000E400E030100020341000202C100020C5
:100B4C0030EF00E000B583B040230193019B83F3A9
:100B5C00118800BF0B4B1B6801330A4A1360094B09
:100B6C001B68012B0AD1084B5B68C3F30803002BED
:100B7C0004D0064940F2111002F039F900BF03B05D
:100B8C005DF804FB2C10002000ED00E094500000F8
:100B9C0000B583B00D4B1B68002B04D10C494FF4EE
:100BAC008C7002F024F9094B1B68013B074A136057
:100BBC00064B1B68002B05D100230193019B83F38B
:100BCC00118800BF00BF03B05DF804FB2C1000209F
:100BDC0094500000044BD3F88830034A43F470035C
:100BEC00C2F8883000BF704700ED00E000B585B05A
:100BFC00EFF305830193019B0093BDF80030C3F321
:100C0C0008039BB20393039B0F2B12D9114A039B2E
:100C1C00103B134493F800338DF80B300E4B1B78BC
:100C2C009DF80B209A4204D20C494FF4A97002F0A3
:100C3C00DEF8FFF79BFE0246094B1B689A4204D96B
:100C4C0006494FF4B17002F0D2F800BF05B05DF860
:100C5C0004FB00BF00E100E03010002094500000C5
:100C6C003410002082B003468DF807309DF9073010
:100C7C00002B0CDB9DF8073003F01F0205499DF992
:100C8C0007305B09012000FA02F241F8232000BF73
:100C9C0002B0704700E100E082B003468DF80730E7
:100CAC009DF90730002B0DDB9DF8073003F01F0278
:100CBC0006499DF907305B09012000FA02F2603306
:100CCC0041F8232000BF02B0704700BF00E100E0F4
:100CDC0082B0034600918DF807309DF90730002B48
:100CEC000ADB009BDAB20C499DF907305201D2B2F3
:100CFC000B4483F800230BE0009BDAB207499DF804
:100D0C00073003F00F03043B5201D2B20B441A76A6
:100D1C0000BF02B0704700BF00E100E000ED00E052
:100D2C0084B0EFF311830193019B0393402302934F
:100D3C00029B83F3118800BF039B184604B07047D5
:100D4C0084B0039002910192039B029A02F5A8725F
:100D5C00019943F8221000BF04B0704782B0019093
:100D6C000091019B009AC3F8042300BF02B07047A6
:100D7C0082B001900091019B009AC3F8082300BF38
:100D8C0002B0704784B001900B46ADF80230BDF84C
:100D9C000230019A134400221A60BDF80230019A05
:100DAC0013441B680393039B00BF04B0704782B0CD
:100DBC000190019BD3F80435184602B0704700002F
:100DCC0000B583B001900091009BB3F5805F04D314
:100DDC0006494FF4BE7002F00AF8019B009AC3F862
:100DEC00082500BF03B05DF804FB00BF18510000DC
:100DFC0082B001900B468DF803309DF80320019BC7
:100E0C0013441A460123136000BF02B0704782B02E
:100E1C0001900091019B009AC3F8442300BF02B0DB
:100E2C007047000000B587B04FF4A0712048FFF761
:100E3C00A9FF00230593FFF773FF03901C48FFF7EE
:100E4C00B6FF02904FF480711948FFF79BFF00F03A
:100E5C00A1FF0246029B9B1A23F07F430493049B41
:100E6C00012B0DD901F0DEFA0346022B08D0012329
:100E7C00049305E000F0B8FF0246059B134305936D
:100E8C00049B5A1E0492002BF4D1059B002B04D01A
:100E9C00084B4FF080525A6040BF039B0193019B5B
:100EAC0083F3118800BF00BF07B05DF804FB00BFDF
:100EBC000010014000ED00E008B5002002F018F829
:100ECC001F210E48FFF77CFF01210C48FFF746FF5E
:100EDC0008210A48FFF78CFF00210848FFF788FF1C
:100EEC0002210648FFF793FF0F211120FFF7F0FEB8
:100EFC001120FFF7B7FE00BF08BD00BF0010014076
:100F0C0000B589B00190019B364A934201D9354B0B
:100F1C00019372B600BF3448FFF749FF069001F009
:100F2C00B9F90346002B56D0069A019B134423F0C3
:100F3C007F43059301212C48FFF71AFF059A0021E6
:100F4C002948FFF7FDFE4FF4A0712748FFF71AFF61
:100F5C004FF480312448FFF701FFBFF34F8F00BFE0
:100F6C00019B0493049B002B09D020BF1F4BD3F88B
:100F7C0000211E4BD3F804311343002BF5D04FF452
:100F8C0080311948FFF7F4FE4FF4A0711648FFF7B3
:100F9C00F9FE4FF480711448FFF7F4FE012112485A
:100FAC00FFF7DCFE1048FFF702FF0390039A069B45
:100FBC00D31A23F07F4307931120FFF76DFE079A96
:100FCC00019B9A4201D9019B0793079B002B02D0EE
:100FDC00079800F0E9FE62B600BF00BF09B05DF8EB
:100FEC0004FB00BFFDFFFF000010014000E100E02A
:100FFC0084B0EFF311830193019B0393402302937D
:10100C00029B83F3118800BF039B184604B0704702
:10101C0000B585B001900091019B0393039B002BBD
:10102C0003D12B49FC2001F0E2FEFFF78BFD039B63
:10103C001A68039BDB6B0399096C01FB03F31A44DD
:10104C00039B5A60039B00229A63039B1A68039BC1
:10105C009A60039B1A68039BDB6B013B0399096C39
:10106C0001FB03F31A44039BDA60039BFF2283F812
:10107C004420039BFF2283F84520009B002B16D1B4
:10108C00039B1B69002B1CD0039B1033184600F0EC
:10109C00F1FF0346002B14D00E4B4FF080525A60D8
:1010AC0040BFBFF34F8F00BFBFF36F8F09E0039BAF
:1010BC0010331846FFF76AFB039B24331846FFF7DF
:1010CC0065FBFFF765FD0123184605B05DF804FBD1
:1010DC004851000000ED00E000B58BB00590049184
:1010EC0013468DF80F30059B002B04D1154940F2A7
:1010FC006D1001F07CFE049B002B02D100230993A0
:10110C0004E0059B049A02FB03F30993099B483303
:10111C001846FFF7E7FA0890089B002B0CD0089BA9
:10112C00483307939DF80F20089B00931346079AAA
:10113C000499059800F008F8089B18460BB05DF868
:10114C0004FB00BF4851000000B585B0039002912C
:10115C0001928DF80330029B002B03D1069B069A5B
:10116C001A6002E0069B019A1A60069B039ADA63E6
:10117C00069B029A1A6401210698FFF749FF00BFEB
:10118C0005B05DF804FB000000B58BB00390029134
:10119C000192009300230993039B0893089B002B57
:1011AC0004D167494FF4377001F021FE029B002BEC
:1011BC0008D1089B1B6C002B04D0614940F2DD2048
:1011CC0001F015FE009B022B08D1089BDB6B012B59
:1011DC0004D05B4940F2DE2001F009FE01F022F957
:1011EC000346002B07D1019B002B04D0544940F23D
:1011FC00E12001F0FCFDFFF7A5FC089B9A6B089B16
:10120C00DB6B9A4202D3009B022B2ED1009A0299DF
:10121C00089800F0D5F90790089B5B6A002B12D058
:10122C00089B2433184600F025FF0346002B18D0EA
:10123C00444B4FF080525A6040BFBFF34F8F00BFFA
:10124C00BFF36F8F0DE0079B002B0AD03D4B4FF087
:10125C0080525A6040BFBFF34F8F00BFBFF36F8FF8
:10126C0000BFFFF795FC012365E0019B002B03D128
:10127C00FFF78EFC00235EE0099B002B05D105AB2C
:10128C00184600F057FF01230993FFF781FC00F08B
:10129C00A7FCFFF757FC089B93F844305BB2B3F103
:1012AC00FF3F03D1089B002283F84420089B93F84E
:1012BC0045305BB2B3F1FF3F03D1089B002283F8AA
:1012CC004520FFF765FC01AA05AB1146184600F056
:1012DC0043FF0346002B26D1089800F06BFA034617
:1012EC00002B1AD0089B1033019A1146184600F0B7
:1012FC007BFE089800F0F2F900F0B2FC0346002BDC
:10130C007FF479AF0F4B4FF080525A6040BFBFF360
:10131C004F8F00BFBFF36F8F0CE0089800F0DEF921
:10132C0000F09EFC67E7089800F0D8F900F098FCF4
:10133C00002300E05FE718460BB05DF804FB00BF2C
:10134C004851000000ED00E000B58BB00390029115
:10135C0001920093039B0893089B002B04D1324904
:10136C0040F2A23001F043FD029B002B08D1089BF8
:10137C001B6C002B04D02C4940F2A33001F037FD3C
:10138C00009B022B08D1089BDB6B012B04D0264958
:10139C004FF4697001F02BFDFFF728FCFFF728FED6
:1013AC000790089B9A6B089BDB6B9A4202D3009BBD
:1013BC00022B2CD1089B93F845308DF81B30009AEA
:1013CC000299089800F0FCF89DF91B30B3F1FF3F2F
:1013DC0012D1089B5B6A002B16D0089B243318464D
:1013EC0000F048FE0346002B0ED0019B002B0BD0C7
:1013FC00019B01221A6007E09DF81B300133DBB220
:10140C005AB2089B83F845200123099301E000237D
:10141C000993079B0593059B83F3118800BF099BD8
:10142C0018460BB05DF804FB4851000000B58BB0BA
:10143C0003900291019200230993039B0893089B4C
:10144C00002B04D15C4940F2DF4001F0D0FC029B40
:10145C00002B08D1089B1B6C002B04D0564940F282
:10146C00E34001F0C4FC00F0DDFF0346002B07D184
:10147C00019B002B04D050494FF49D6001F0B7FC48
:10148C00FFF760FB089B9B6B0793079B002B22D0FD
:10149C000299089800F0FDF8079B5A1E089B9A6366
:1014AC00089B1B69002B12D0089B1033184600F0C8
:1014BC00E1FD0346002B0AD0404B4FF080525A609E
:1014CC0040BFBFF34F8F00BFBFF36F8F00BFFFF75D
:1014DC005FFB01236BE0019B002B03D1FFF758FB53
:1014EC00002364E0099B002B05D105AB184600F0E6
:1014FC0021FE01230993FFF74BFB00F071FBFFF773
:10150C0021FB089B93F844305BB2B3F1FF3F03D14E
:10151C00089B002283F84420089B93F845305BB26B
:10152C00B3F1FF3F03D1089B002283F84520FFF75E
:10153C002FFB01AA05AB1146184600F00DFE034621
:10154C00002B25D1089800F020F90346002B19D068
:10155C00089B2433019A1146184600F045FD089863
:10156C0000F0BCF800F07CFB0346002B88D1134B39
:10157C004FF080525A6040BFBFF34F8F00BFBFF394
:10158C006F8F13E0089800F0A9F800F069FB77E77B
:10159C00089800F0A3F800F063FB089800F0F5F849
:1015AC000346002B3FF46CAF002300E068E71846BD
:1015BC000BB05DF804FB00BF4851000000ED00E0EB
:1015CC0000B587B003900291019200230593039B11
:1015DC009B6B0493039B1B6C002B0DD1039B1B6813
:1015EC00002B4DD1039B5B68184600F035FF05902E
:1015FC00039B00225A6043E0019B002B19D1039BF3
:10160C009868039B1B6C1A46029902F089FE039B97
:10161C009A68039B1B6C1A44039B9A60039B9A6801
:10162C00039B5B689A422BD3039B1A68039B9A60BB
:10163C0026E0039BD868039B1B6C1A46029902F0A8
:10164C006FFE039BDA68039B1B6C5B421A44039B83
:10165C00DA60039BDA68039B1B689A4207D2039BF0
:10166C005A68039B1B6C5B421A44039BDA60019B18
:10167C00022B05D1049B002B02D0049B013B04934D
:10168C00049B5A1C039B9A63059B184607B05DF894
:10169C0004FB00B583B001900091019B1B6C002BE7
:1016AC0018D0019BDA68019B1B6C1A44019BDA6011
:1016BC00019BDA68019B5B689A4203D3019B1A6811
:1016CC00019BDA60019BD968019B1B6C1A46009840
:1016DC0002F026FE00BF03B05DF804FB00B585B038
:1016EC000190FFF72FFA019B93F845308DF80F30DE
:1016FC0013E0019B5B6A002B14D0019B243318462A
:10170C0000F0B8FC0346002B01D000F07DFD9DF8E5
:10171C000F30013BDBB28DF80F309DF90F30002BF1
:10172C00E7DC00E000BF019BFF2283F84520FFF7B8
:10173C002FFAFFF707FA019B93F844308DF80E301F
:10174C0013E0019B1B69002B14D0019B103318462E
:10175C0000F090FC0346002B01D000F055FD9DF8E5
:10176C000E30013BDBB28DF80E309DF90E30002BA4
:10177C00E7DC00E000BF019BFF2283F84420FFF769
:10178C0007FA00BF05B05DF804FB00B585B0019009
:10179C00FFF7D8F9019B9B6B002B02D1012303931C
:1017AC0001E000230393FFF7F3F9039B184605B000
:1017BC005DF804FB00B585B00190FFF7C3F9019B00
:1017CC009A6B019BDB6B9A4202D10123039301E0DC
:1017DC0000230393FFF7DCF9039B184605B05DF873
:1017EC0004FB000084B0019000910023039314E0EB
:1017FC000D4A039B52F83330002B0BD10A49039B43
:10180C00009A41F83320084A039BDB001344019AE9
:10181C005A6006E0039B01330393039B012BE7D92A
:10182C0000BF00BF04B070473810002000B587B06F
:10183C00039002910192039B0593FFF783F9059B9B
:10184C0093F844305BB2B3F1FF3F03D1059B002208
:10185C0083F84420059B93F845305BB2B3F1FF3F0E
:10186C0003D1059B002283F84520FFF791F9059BD6
:10187C009B6B002B06D1059B2433019A02991846C9
:10188C0000F0D2FB0598FFF729FF00BF07B05DF809
:10189C0004FB00B58DB00790069104931346ADF888
:1018AC001630BDF816309B001846FEF71BFF09904A
:1018BC00099B002B0ED04820FEF714FF0B900B9BBE
:1018CC00002B03D00B9B099A1A6305E00998FEF7CD
:1018DC004DFF01E000230B930B9B002B14D0BDF8A4
:1018EC001620002303930B9B02930F9B01930E9BDB
:1018FC000093049B0699079800F00EF80B9800F0E3
:10190C008DF801230A9302E04FF0FF330A930A9BF0
:10191C0018460DB05DF804FB00B587B0039002913A
:10192C00019200930A9B186B019B9B001A46A52100
:10193C0002F02CFD0A9B1A6B019B03F18043013BC7
:10194C009B0013440493049B23F007030493049B10
:10195C0003F00703002B04D02F4940F2633001F051
:10196C0046FA0023059312E0029A059B134419785A
:10197C000A9A059B134434330A461A70029A059B43
:10198C0013441B78002B06D0059B01330593059B54
:10199C00032BE9D900E000BF0A9B002283F8372013
:1019AC00089B022B01D9022308930A9B089ADA623E
:1019BC000A9B089A9A630A9B0022DA630A9B0433F7
:1019CC001846FEF7FEFE0A9B18331846FEF7F9FE82
:1019DC000A9B0A9A1A61089BC3F103020A9B9A613B
:1019EC000A9B0A9A5A620A9B00221A640A9B0022DA
:1019FC0083F84420009A03990498FEF7E9FF024605
:101A0C000A9B1A60099B002B02D0099B0A9A1A6048
:101A1C0000BF07B05DF804FBB851000000B583B0FF
:101A2C000190FFF78FF82C4B1B6801332A4A136087
:101A3C002A4B1B68002B09D1284A019B1360264BAB
:101A4C001B68012B10D100F053FC0DE0244B1B68DC
:101A5C00002B09D1214B1B68DA6A019BDB6A9A4285
:101A6C0002D81E4A019B13601E4B1B6801331D4A92
:101A7C001360019BDB6A01229A401B4B1B681343CA
:101A8C00194A1360019BDA6A13469B0013449B00AE
:101A9C00164A1A44019B043319461046FEF799FE68
:101AAC00FFF776F80E4B1B68002B11D00B4B1B6805
:101ABC00DA6A019BDB6A9A420AD20D4B4FF08052D4
:101ACC005A6040BFBFF34F8F00BFBFF36F8F00BF93
:101ADC0000BF03B05DF804FBF81000204810002094
:101AEC000411002014110020001100204C100020C3
:101AFC0000ED00E000B585B0019000230393019B3D
:101B0C00002B11D0114B1B68002B04D0104940F254
:101B1C000F5001F06CF900F063F80021019800F00F
:101B2C0015FD00F09DF80390039B002B0AD1094B87
:101B3C004FF080525A6040BFBFF34F8F00BFBFF3CE
:101B4C006F8F00BF00BF05B05DF804FB20110020B3
:101B5C00B851000000ED00E000B585B0194B0193C1
:101B6C000023009300233C2217491848FFF791FEED
:101B7C000390039B012B02D100F04CFD0390039BBF
:101B8C00012B12D140230293029B83F3118800BFD7
:101B9C000F4B4FF0FF321A600E4B01221A600E4BA6
:101BAC0000221A60FEF75AFF08E0039BB3F1FF3FD7
:101BBC0004D10A4940F2DC7001F019F900BF05B0FC
:101BCC005DF804FB1C1100202852000025220000A7
:101BDC001811002004110020FC100020B851000046
:101BEC00034B1B680133024A136000BF704700BFF0
:101BFC002011002084B00023029301230193134B86
:101C0C001B68019A9A4201D201230293104B1B6864
:101C1C00DB6A002B02D00023039312E00D4B1B68F0
:101C2C00012B02D9002303930BE0029B002B02D063
:101C3C000023039305E0084B1A68084B1B68D31A62
:101C4C000393039B184604B0704700BF001100209B
:101C5C00481000204C10002018110020FC1000200F
:101C6C0000B585B000230393002302933F4B1B6800
:101C7C00002B04D13E494FF4046001F0B8F8FEF794
:101C8C0061FF3A4B1B68013B384A1360374B1B68AA
:101C9C00002B64D1374B1B68002B60D02EE0364BE9
:101CAC00DB68DB680393039B18331846FEF7E4FDEF
:101CBC00039B04331846FEF7DFFD039BDB6A01220E
:101CCC009A402E4B1B6813432C4A1360039BDA6A11
:101CDC0013469B0013449B00294A1A44039B04336C
:101CEC0019461046FEF775FD039BDA6A254B1B68F7
:101CFC00DB6A9A4202D3244B01221A601E4B1B68EA
:101D0C00002BCCD1039B002B01D000F06BFB1F4BA5
:101D1C001B680193019B002B10D000F065F8034663
:101D2C00002B02D0184B01221A60019B013B01933E
:101D3C00019B002BF1D1154B00221A60124B1B6832
:101D4C00002B0CD001230293114B4FF080525A60A0
:101D5C0040BFBFF34F8F00BFBFF36F8F00BFFEF7C5
:101D6C0017FF029B184605B05DF804FB20110020FC
:101D7C00B8510000F8100020B8100020001100200D
:101D8C004C100020481000200C11002008110020DD
:101D9C0000ED00E082B0034B1B680193019B1846D9
:101DAC0002B07047FC10002000B583B001900B4BC3
:101DBC001A68019B1A440A4B1B689A4204D90949B8
:101DCC0040F6C91001F013F8044B1A68019B134438
:101DDC00024A136000BF03B05DF804FBFC10002046
:101DEC0018110020B851000000B587B000230593EE
:101DFC00454B1B68002B77D1444B1B680133049374
:101E0C00424A049B1360049B002B1AD1404B1B6865
:101E1C001B68002B04D03F4940F6332000F0E7FF4D
:101E2C003B4B1B6803933C4B1B68394A13603A4A83
:101E3C00039B1360394B1B680133384A136000F065
:101E4C00D1FA374B1B68049A9A4252D3304B1B6819
:101E5C001B68002B01D1012300E00023002B04D0D0
:101E6C002F4B4FF0FF321A6043E0294B1B68DB68A5
:101E7C00DB680293029B5B680193049A019B9A4274
:101E8C0003D2274A019B136033E0029B04331846AC
:101E9C00FEF7F2FC029B9B6A002B04D0029B1833CA
:101EAC001846FEF7E9FC029BDB6A01229A401D4BA7
:101EBC001B6813431B4A1360029BDA6A13469B0090
:101ECC0013449B00184A1A44029B043319461046CB
:101EDC00FEF77FFC029BDA6A144B1B68DB6A9A42A2
:101EEC00B4D301230593B1E7114B1B680133104A9E
:101EFC001360104B1B68002B01D001230593059B2D
:101F0C00184607B05DF804FB20110020FC100020DF
:101F1C00B0100020B8510000B410002010110020A7
:101F2C0018110020001100204C1000204810002037
:101F3C00081100200C11002000B585B0244B1B6843
:101F4C00002B03D0234B01221A603DE0214B0022D1
:101F5C001A60214B1B680193019B002B01D120239C
:101F6C0003E0019BB3FA83F3DBB2C3F11F030393CA
:101F7C001A49039A13469B0013449B000B441B689D
:101F8C00002B04D116494FF4356000F030FF039A52
:101F9C0013469B0013449B00104A13440293029B6C
:101FAC005B685A68029B5A60029B5A68029B083312
:101FBC009A4204D1029B5B685A68029B5A60029B4E
:101FCC005B68DB68074A136000BF05B05DF804FB73
:101FDC00201100200C110020001100204C100020BA
:101FEC00B85100004810002000B583B0019000915A
:101FFC00019B002B04D10A494FF4366000F0F7FE28
:10200C00084B1B68183319460198FEF701FC012197
:10201C00009800F09BFA00BF03B05DF804FB00BF12
:10202C00B85100004810002000B585B00390029113
:10203C000192039B002B04D10C4940F68B3000F02D
:10204C00D6FE0B4B1B68183319460398FEF7C1FBE1
:10205C00019B002B02D04FF0FF33029301990298A1
:10206C0000F074FA00BF05B05DF804FBB851000035
:10207C004810002000B585B00190019BDB68DB683F
:10208C000293029B002B04D1234940F6BB3000F095
:10209C00AEFE029B18331846FEF7EEFB1F4B1B6877
:1020AC00002B1CD1029B04331846FEF7E5FB029B68
:1020BC00DB6A01229A401A4B1B681343184A1360BF
:1020CC00029BDA6A13469B0013449B00154A1A4480
:1020DC00029B043319461046FEF77BFB05E0029B7E
:1020EC00183319461048FEF774FB029BDA6A0F4B43
:1020FC001B68DB6A9A4205D9012303930C4B01221E
:10210C001A6001E00023039300F06CF9039B18465E
:10211C0005B05DF804FB00BFB85100002011002091
:10212C00001100204C100020B81000204810002096
:10213C000C11002082B00190054B1A68019B1A60AB
:10214C00044B1A68019B5A6000BF02B0704700BF75
:10215C0010110020FC10002000B587B001900091F8
:10216C00019B002B04D1254940F6264000F03FFE90
:10217C00009B002B04D1214940F6274000F037FE8C
:10218C00FEF7E0FC1E4B1B680493019B5B68049AF2
:10219C00D31A0393009B1B68B3F1FF3F02D10023BA
:1021AC00059323E0019B1A68164B1B689A4207D0D3
:1021BC00019B5B68049A9A4202D30123059315E0B4
:1021CC00009B1B68039A9A420BD2009B1A68039BD4
:1021DC00D21A009B1A600198FFF7ACFF00230593FD
:1021EC0004E0009B00221A6001230593FEF7D0FC4B
:1021FC00059B184607B05DF804FB00BFB851000002
:10220C00FC10002010110020024B01221A6000BFAC
:10221C00704700BF0C11002000B585B0019000F094
:10222C00A5F8174B1B68012B0AD9164B4FF080529F
:10223C005A6040BFBFF34F8F00BFBFF36F8F00BF1B
:10224C00FFF7D8FC0390039B012BE8D9FFF7C8FCE0
:10225C000D4B1A680D4B1B689A4204D20C4940F680
:10226C00EE4000F0C4FDFFF7C5FC0390039B012B6F
:10227C0002D90398FEF744FEFFF7F2FCCFE700BF4C
:10228C004C10002000ED00E018110020FC10002084
:10229C00B851000082B00123009301238DF8073060
:1022AC000F4B1B68002B03D000238DF8073012E076
:1022BC000C4B1B68002B03D000238DF807300AE071
:1022CC00094B1A68094B1968009BCB1A9A4202D128
:1022DC0002238DF807309DF80730184602B070477E
:1022EC00B81000200C110020E4100020F810002081
:1022FC0000B583B0002301930CE0019A13469B00B8
:10230C0013449B00114A13441846FEF73FFA019BF5
:10231C0001330193019B022BEFD90D48FEF736FADE
:10232C000C48FEF733FA0C48FEF730FA0B48FEF770
:10233C002DFA0B48FEF72AFA0A4B054A1A600A4B8B
:10234C00044A1A6000BF03B05DF804FB4C10002077
:10235C00881000209C100020B8100020CC10002009
:10236C00E4100020B0100020B410002000B583B0A1
:10237C0019E0FEF7E7FB104BDB68DB680193019B70
:10238C0004331846FEF778FA0C4B1B68013B0B4ADA
:10239C0013600B4B1B68013B094A1360FEF7F8FBFB
:1023AC00019800F00FF8064B1B68002BE1D100BF21
:1023BC0000BF03B05DF804FBCC100020F810002027
:1023CC00E010002000B583B00190019B1B6B1846F8
:1023DC00FEF7CCF90198FEF7C9F900BF03B05DF820
:1023EC0004FB000082B00D4B1B681B68002B01D155
:1023FC00012300E00023002B04D0094B4FF0FF32E7
:10240C001A6008E0054B1B68DB68DB680193019BD5
:10241C005B68034A136000BF02B07047B010002025
:10242C001811002082B00A4B1B68002B02D101232B
:10243C00019308E0074B1B68002B02D10223019388
:10244C0001E000230193019B184602B0704700BFC6
:10245C00041100202011002000B585B00190019BD3
:10246C00029300230393019B002B62D0334B1B6818
:10247C00029A9A4204D0324940F63B7000F0B7FC05
:10248C00029BDB6B002B04D12D4940F63C7000F015
:10249C00AEFC029BDB6B5A1E029BDA63029BDA6A70
:1024AC00029B9B6B9A4244D0029BDB6B002B40D16E
:1024BC00029B04331846FEF7DFF90346002B15D1B7
:1024CC00029BDA6A1F4913469B0013449B000B4482
:1024DC001B68002B0AD1029BDB6A012202FA03F370
:1024EC00DA43194B1B681340174A1360029B9A6B13
:1024FC00029BDA62029BDB6AC3F10302029B9A61C4
:10250C00029BDB6A01229A400F4B1B6813430E4A55
:10251C001360029BDA6A13469B0013449B00094A22
:10252C001A44029B043319461046FEF752F9012354
:10253C000393039B184605B05DF804FB481000207C
:10254C00B85100004C1000200011002000B585B0DF
:10255C0001900091284B1B680393284B1B68043394
:10256C001846FEF789F90346002B0BD1234B1B6849
:10257C00DB6A012202FA03F3DA43214B1B68134096
:10258C001F4A1360019BB3F1FF3F0AD1009B002B44
:10259C0007D01A4B1B68043319461A48FEF719F971
:1025AC0026E0039A019B13440293144B1B68029A76
:1025BC005A60029A039B9A4209D2134B1A680F4B2A
:1025CC001B68043319461046FEF722F910E00F4B36
:1025DC001A680A4B1B68043319461046FEF718F9A3
:1025EC000B4B1B68029A9A4202D2094A029B136057
:1025FC0000BF05B05DF804FBFC1000204810002063
:10260C0000110020E4100020B4100020B0100020B5
:10261C001811002000B585B00023039300F0CAFA0E
:10262C000D4B1B68002B0AD00C4B0193022300931B
:10263C00002350220A490B48FFF72BF90390039B08
:10264C00002B04D108494FF4887000F0D0FB039B99
:10265C00184605B05DF804FB5411002058110020F9
:10266C0030520000112800003852000000B589B02B
:10267C0005900491039202932820FEF733F80790FB
:10268C00079B002B09D0079B01930A9B0093029B8D
:10269C00039A0499059800F005F8079B184609B0B1
:1026AC005DF804FB00B585B0039002910192009394
:1026BC00029B002B04D1114940F2691000F097FBEA
:1026CC00079B002B15D000F075FA079B039A1A6034
:1026DC00079B029A9A61079B019ADA61079B009A01
:1026EC001A62079B069A5A62079B04331846FEF738
:1026FC0068F800BF05B05DF804FB00BF385200005D
:10270C0000B58BB0039002910192009300230993C2
:10271C00039B002B04D11B4940F2831000F067FB94
:10272C00194B1B68002B27D0029B0593019B06932A
:10273C00039B0793029B052B16DCFFF773FE0346E6
:10274C00022B08D1104B186805A900230C9AFEF730
:10275C001BFD099010E00C4B186805A90023002202
:10276C00FEF712FD099007E0074B186805A9002336
:10277C00009AFEF7E9FD0990099B18460BB05DF82D
:10278C0004FB00BF385200005411002000B587B084
:10279C0003900291194B1B68DB68DB680593059B62
:1027AC0004331846FEF768F8059BDB69012B1CD136
:1027BC00059B9A69039BD118039B029A059800F01C
:1027CC00BDF80346002B10D0002300930023039A7E
:1027DC0000210598FFF794FF0490049B002B04D173
:1027EC00074940F2E51000F002FB059B5B6A059877
:1027FC00984700BF07B05DF804FB00BF4C110020E8
:10280C003852000000B585B0019002AB184600F0BC
:10281C0057F80390029B1946039800F003F800F058
:10282C00CFF8F2E700B585B001900091FFF7D8F929
:10283C0002AB184600F064F80390029B002B32D1D7
:10284C00009B002B0AD1019A039B9A4206D8FFF7F2
:10285C0007FA03990198FFF799FF27E0009B002BDB
:10286C0008D0144B1B681B68002B0CBF01230023E2
:10287C00DBB20093104B1868019A039BD31A009A91
:10288C001946FEF7D3FFFFF7EBF90346002B0DD1EA
:10289C000A4B4FF080525A6040BFBFF34F8F00BFBE
:1028AC00BFF36F8F02E0FFF7DBF9FFE700BF05B066
:1028BC005DF804FB501100205411002000ED00E0E5
:1028CC0084B001900D4B1B681B68002B0CBF0123BF
:1028DC000023DBB21A46019B1A60019B1B68002B7C
:1028EC0005D1064B1B68DB681B68039301E00023D2
:1028FC000393039B184604B0704700BF4C11002093
:10290C0000B585B00190FFF745FA03900A4B1B68A0
:10291C00039A9A4205D200F0F1F8019B01221A6049
:10292C0002E0019B00221A60034A039B1360039B85
:10293C00184605B05DF804FB5C11002000B587B0AB
:10294C00039002910192009300230593039B029A3A
:10295C005A60039B039A1A61029A019B9A4212D8FD
:10296C00019A009BD21A039B9B699A4202D30123C2
:10297C0005931BE0104B1A68039B04331946104651
:10298C00FDF746FF12E0019A009B9A4206D2029A8A
:10299C00009B9A4202D30123059307E0074B1A6868
:1029AC00039B043319461046FDF732FF059B18466E
:1029BC0007B05DF804FB00BF501100204C11002043
:1029CC0000B58DB086E0049B002B12DA04AB043307
:1029DC000B930B9B002B04D146494FF4317000F044
:1029EC0006FA0B9B1B680B9A50680B9A926811465F
:1029FC009847049B002B6DDB069B0A930A9B5B6933
:102A0C00002B04D00A9B04331846FDF735FF03ABAB
:102A1C001846FFF775FF0990049B092B59D801A2A2
:102A2C0052F823F0592A0000592A0000592A0000B4
:102A3C00E12A0000AB2A0000D72A0000592A000026
:102A4C00592A0000E12A0000AB2A0000059A0A9BD3
:102A5C009B69D118059B099A0A98FFF76FFF0346EB
:102A6C00002B37D00A9B5B6A0A9898470A9BDB6954
:102A7C00012B2FD1059A0A9B9B691A4400230093C2
:102A8C00002300210A98FFF73BFE0890089B002BBF
:102A9C0020D1184940F2FE2000F0A9F91AE0059A5D
:102AAC000A9B9A610A9B9B69002B04D1114940F245
:102ABC00153000F09CF90A9B9A69099BD118099B67
:102ACC00099A0A98FFF73AFF04E00A98FDF74EFEC0
:102ADC0000E000BF084B1B6804A900221846FEF753
:102AEC00A5FC0346002B7FF46EAF00BF00BF0DB0FA
:102AFC005DF804FB385200005411002000B589B079
:102B0C003FE0294B1B68DB681B680693264B1B6850
:102B1C00DB68DB680593059B04331846FDF7ACFEB8
:102B2C00059B5B6A05989847059BDB69012B28D1AF
:102B3C00059B9B69069A13440493049A069B9A423C
:102B4C000ED9059B049A5A60059B059A1A61164B7F
:102B5C001A68059B043319461046FDF759FE10E020
:102B6C00002300930023069A00210598FFF7C8FD67
:102B7C000390039B002B04D10C4940F26F3000F002
:102B8C0036F9094B1B681B68002BBAD1064B1B6826
:102B9C000793074B1B68044A1360054A079B136095
:102BAC0000BF09B05DF804FB4C1100203852000046
:102BBC005011002008B5FDF7C5FF134B1B68002B07
:102BCC001DD11248FDF7E2FD1148FDF7DFFD114B59
:102BDC000E4A1A60104B0E4A1A6000221021202057
:102BEC00FEF77AFA0346084A1360074B1B68002B62
:102BFC0005D0054B1B6809491846FEF7F3FDFDF798
:102C0C00C7FF00BF08BD00BF5411002024110020D5
:102C1C00381100204C11002050110020A852000047
:102C2C0086B003900291019201238DF817309DF824
:102C3C001730204A039B13601E4A029B53601D4AA7
:102C4C00019B9360039B44F20102934212D0039BBD
:102C5C0044F20202934220D1019B164AD360154BD9
:102C6C00DB681B68134A9361124BDB685B68114A83
:102C7C00D36112E0019B0F4A13610E4B1B699B68D9
:102C8C000C4A53610B4B1B691B680A4A9361094B35
:102C9C001B695B68074AD36100BF72B600BF00BFF7
:102CAC009DF81730DBB2002BFAD162B600BF00BF23
:102CBC0006B070476011002000B583B002900091FF
:102CCC00019244F2010071466A4600F003F803B029
:102CDC0000BD00BF00B587B003900291019272B69F
:102CEC0000BF039B44F20102934207D0039B44F2C2
:102CFC000202934205D1019B059303E0019B0493CF
:102D0C0000E000BF074B1B6803F00103002B00D051
:102D1C0000BE019A02990398FFF782FF00BF07B02B
:102D2C005DF804FBF0ED00E072B600BF034B1B68CE
:102D3C000133024A136000BF704700BF80110020AE
:102D4C00064B1B68013B054A1360044B1B68002BA8
:102D5C0001D162B600BF00BF704700BF80110020D8
:102D6C0000B583B0019000F025F80346012B03D089
:102D7C000449432000F03BF8FFF7D6FF00BF03B037
:102D8C005DF804FBB052000000B583B003468DF82B
:102D9C00073000F00FF80346012B03D004495120F3
:102DAC0000F025F8FFF7CCFF00BF03B05DF804FB83
:102DBC00B052000084B0EFF305830193019BC3F381
:102DCC0008030393039B002B0DD1EFF314830093A3
:102DDC00009B0293029B03F00103002B0CBF012309
:102DEC000023DBB200E00123184604B0704700B5A5
:102DFC0085B003460091ADF80630BDF8063002935D
:102E0C00009B039302AB1A46002144F20200FFF729
:102E1C0061FF00BF05B05DF804FB0000044BD3F864
:102E2C000034002B14BF01230023DBB2184670477B
:102E3C000000014000B583B000230193144B1B78B4
:102E4C00002B02D08523019314E0114B00229A60D1
:102E5C000F4B00225A600E4B00221A610C4B0022C1
:102E6C00DA600C4800F01CFA019000F03FFA084BB5
:102E7C0001221A70FFF7D2FF0346002B02D0044B3D
:102E8C0001229A70019B184603B05DF804FB00BF49
:102E9C0084110020E52F000084B001900091019B6B
:102EAC001B68039306E0039A009B9A420DD0039B88
:102EBC001B680393039B002BF5D1019B1A68009BA5
:102ECC001A60019B009A1A6000E000BF04B07047C2
:102EDC0084B00190019B1B680393039B002B03D0D0
:102EEC00039B1A68019B1A60039B184604B0704739
:102EFC0000B583B00190224B1B78002B03D12149E4
:102F0C00F620FFF774FF1E4B9B78DBB2002B12D020
:102F1C00019B002B03D0019B5B680120984700208C
:102F2C00FFF71EFF164BDB680133154AD3600020F8
:102F3C00FFF72AFF17E00020FFF712FF019B002B81
:102F4C0003D001991048FFF7A7FF0D4BDB68002B4E
:102F5C0001D100F0DFF90A4BDB680133084AD3607A
:102F6C000020FFF711FF064BDB68002B04D105494D
:102F7C004FF48970FFF73BFF00BF03B05DF804FB13
:102F8C00841100202C5300009411002000B585B052
:102F9C0003468DF807309DF80730002B02D10C4BFF
:102FAC00039301E00B4B03930398FFF791FF0290FF
:102FBC00029B002B06D0029B5B689DF807201046F5
:102FCC009847F1E700BF00BF05B05DF804FB00BFF8
:102FDC008C1100209411002000B583B003468DF8AD
:102FEC0007309DF80730002B05D10A4B01225A708F
:102FFC000020FFF7CBFF9DF80730012B05D1054BC7
:10300C0001229A700120FFF7C1FF00BF03B05DF8E9
:10301C0004FB00BF8411002082B003468DF80730FA
:10302C009DF90730002B0CDB9DF8073003F01F02D5
:10303C0005499DF907305B09012000FA02F241F8BD
:10304C00232000BF02B0704700E100E082B00346CD
:10305C0000918DF807309DF90730002B0ADB009B9F
:10306C00DAB20C499DF907305201D2B20B4483F805
:10307C0000230BE0009BDAB207499DF8073003F000
:10308C000F03043B5201D2B20B441A7600BF02B0BC
:10309C00704700BF00E100E000ED00E082B001905D
:1030AC00019B1B0B5BB2184602B0704700B583B096
:1030BC0003460A468DF8073013468DF806309DF806
:1030CC000630072B03D908496B20FFF790FE9DF8BB
:1030DC0006209DF9073011461846FFF7B7FF00BFD1
:1030EC0003B05DF804FB00BFA453000000B583B02F
:1030FC0003468DF807309DF907301846FFF78CFF13
:10310C0000BF03B05DF804FB82B003468DF80730B6
:10311C000F4A9DF90730002B00DA1F335B115BB2AD
:10312C0052F823209DF90730594203F01F0301F098
:10313C001F0158BF4B425BB222FA03F303F00103A9
:10314C00002B14BF01230023DBB2184602B07047DA
:10315C0000E100E082B001904FF08042019BC2F888
:10316C00043300BF02B0704782B001904FF0804230
:10317C00019BC2F8083300BF02B0704782B003460F
:10318C008DF807309DF8073003F1804301221A6057
:10319C0000BF02B0704784B00346ADF80630BDF8EE
:1031AC00063003F1804300221A60BDF8063003F1AB
:1031BC0080431B680393039B00BF04B0704782B02D
:1031CC000346ADF80630BDF8063003F180431B68AA
:1031DC00002B14BF01230023DBB2184602B070474A
:1031EC0082B001904FF08042019BC2F8183500BFAD
:1031FC0002B0704700B583B006238DF807304FF04E
:10320C008040FFF74BFF03461846FFF77DFF034650
:10321C0083F00103DBB2002B13D04FF08040FFF79B
:10322C003DFF03461A469DF8073019461046FFF736
:10323C003DFF4FF08040FFF731FF03461846FFF784
:10324C0055FF00BF03B05DF804FB000084B0124BC7
:10325C00DB680393104A039B43F08073D3600F4BDE
:10326C001B6802930D4A029B43F0010313600B4B46
:10327C005B68019300BF094B5A68019BD31AB3F5E5
:10328C000A5FF8D3054A029B1360034A039BD36081
:10329C0000BF04B0704700BFF0ED00E0001000E08C
:1032AC0000B585B00190019B002B03D10D49A420E2
:1032BC00FFF79DFD002303930B4B1B79002B02D0D2
:1032CC008523039308E0084A019B1360064B0122F7
:1032DC001A71054B00225A71039B184605B05DF814
:1032EC0004FB00BFD45300009811002008B5074B15
:1032FC001B79002B03D10649BD20FFF778FDFFF7A2
:10330C0079FF0120FFF76CFF00BF08BD981100206A
:10331C00D453000008B50B4B1B79002B03D10A4981
:10332C00EA20FFF764FD4FF48270FFF734FF0220B0
:10333C00FFF710FFFFF78AFF0820FFF71FFF00BF02
:10334C0008BD00BF98110020D453000008B54FF4FD
:10335C008070FFF734FF0346002B14D04FF48070BD
:10336C00FFF719FF0120FFF7FFFE114B5B7983F08C
:10337C000103DBB2002B06D00D4B01225A710C4B12
:10338C001B68002098474FF48270FFF718FF034624
:10339C00002B0AD04FF48270FFF7FDFE0220FFF7DE
:1033AC00E3FE034B1B680120984700BF08BD00BF1C
:1033BC009811002000B583B00346ADF80630BDF877
:1033CC000630184600F026F803461B68012B0CBF8C
:1033DC0001230023DBB2184603B05DF804FB00B5F3
:1033EC0085B00346ADF80630BDF80630184600F03F
:1033FC0011F803461A4600231360BDF80630184630
:10340C0000F008F803461B680393039B00BF05B04C
:10341C005DF804FB82B00346ADF80630BDF806300B
:10342C0003F1804303F5C043184602B07047000017
:10343C0082B00190034BD3F80423019B1340184630
:10344C0002B070470060004082B00190054A019BB9
:10345C0003F5A27352F823301B0A03F01F0318461E
:10346C0002B070470060004082B00190064A019B98
:10347C0003F5A27352F823301B0C03F00303DBB2E9
:10348C00184602B0704700BF0060004000B583B022
:10349C000190019B1B68184600F096F80346002B20
:1034AC0004D105494FF4F670FFF7A1FC4FF0A0438F
:1034BC00184603B05DF804FB7854000000B585B0E5
:1034CC0001900B468DF8033001AB1846FFF7DEFF79
:1034DC000390019A039B02F5E07253F82230019A93
:1034EC0023F44031039B02F5E07243F82210019A59
:1034FC00039B02F5E07253F822309DF8032012046E
:10350C001146019A1943039B02F5E07243F822100D
:10351C0000BF05B05DF804FB00B585B0019001ABB0
:10352C001846FFF7B3FF0390019A039B02F5E07274
:10353C0053F822301B0C03F00303DBB2184605B022
:10354C005DF804FB86B00390029101924FF0A0430A
:10355C000493039B059319E0059B9B0018336B4464
:10356C0053F8083CD3F82025019B1A60059B9B005F
:10357C0018336B4453F8083C019A1268C3F82025A1
:10358C00019B04330193059B01330593039A029B22
:10359C001344059A9A42DFD300BF00BF06B07047B0
:1035AC0000B585B0019001AB1846FFF76FFF039093
:1035BC00019B012202FA03F31A46039BC3F8202550
:1035CC0000BF05B05DF804FB84B00190019B5B0962
:1035DC00029300230393029B002B03D14FF0FF3384
:1035EC00039300BF019B03F01F030193039A019BFC
:1035FC0022FA03F303F00103002B14BF0123002371
:10360C00DBB2184604B0704784B001900091009B67
:10361C000393019BDB080293019B03F007030193C7
:10362C000122019B02FA03F30399029A0A441278CD
:10363C001340184604B0704782B00190044A019BB5
:10364C001344303393F90030184602B0704700BF72
:10365C00A011002082B00190034A019B52F8233044
:10366C00184602B0704700BFA011002084B0019032
:10367C00074A019B1344503393F900308DF80F30F7
:10368C009DF80F3023F0C003184604B0704700BFFC
:10369C00A011002084B00190074A019B13445033C1
:1036AC0093F900308DF80F309DF80F309B09DBB289
:1036BC00184604B0704700BFA011002000B585B0BB
:1036CC000190019A01210020FFF73CFF0023039396
:1036DC000BE0039B9B00019A13441B68002B01D049
:1036EC00012306E0039B01330393039B002BF0D0D3
:1036FC000023184605B05DF804FB000000B587B048
:10370C000190002305935BE0344A059B134450332E
:10371C0093F90030B3F1FF3F4ED00598FFF7A6FFA9
:10372C00049001990498FFF76FFF0346002B44D0D7
:10373C000598FFF7AFFF03468DF80F300498FFF79D
:10374C00EBFE03468DF80E309DF80E30022B01D1A6
:10375C00032300E002238DF80D309DF80D3019463F
:10376C000498FFF7ABFE0498FFF71AFF0498FFF7D5
:10377C0063FF03461846FFF76DFF0290029B002B78
:10378C001BD09DF80F30032B0FD09DF80E30022B61
:10379C0003D19DF80F30012B07D09DF80E30032B71
:1037AC000BD19DF80F30022B07D19DF80F20029BF7
:1037BC0011460498984700E000BF059B0133059320
:1037CC00059B032BA0D90198FFF778FF0346002B2C
:1037DC0097D100BF00BF07B05DF804FBA01100201B
:1037EC0000B589B000230793002300934FF4807336
:1037FC00ADF81630012304930023069321E0BDF8A5
:10380C0016301846FFF7D6FD0346002B0ED0049851
:10381C00FFF70EFE0346002B08D0BDF816301846F5
:10382C00FFF7DDFD079A049B13430793049B5B0092
:10383C000493BDF816300433ADF81630069B0133F3
:10384C000693069B072BDAD94FF4BE70FFF7B2FD37
:10385C000346002B0DD04FF4BE70FFF7C0FD079B45
:10386C0043F0004307936B461A4601210020FFF7F3
:10387C0069FE079BDBB2002B29D0012304930023A4
:10388C00069321E0049A079B1340002B16D0069850
:10389C00FFF7DAFD03900698FFF7E6FD03468DF877
:1038AC000B300698FFF7D6FE0190019B002B05D03C
:1038BC009DF80B20019B114603989847049B5B00D5
:1038CC000493069B01330693069B072BDAD9079BBF
:1038DC00002B03DA6B461846FFF710FF00BF09B048
:1038EC005DF804FB00B583B001900020FCF796FE58
:1038FC00034800F055FEC820FEF7FCF8F5E700BFC2
:10390C002055000000B583B001900120FCF786FE25
:10391C0000BF03B05DF804FB10B584B0FFF78AFA62
:10392C000390039B0293029B002B04D01B4A6C2137
:10393C000298FFF7C1F90120FCF7BEFE184B01936A
:10394C000223009300234FF4827216491648FDF7A8
:10395C00A0FF164B0093002301224FF47A711448F8
:10396C00FEF784FE0346134A1360124B1C68FEF7E5
:10397C0011FA024600230093002301212046FEF792
:10398C00BFFE0D4B1B690C4A43F004031361FEF799
:10399C00E3F80A4800F004FEFBE700BF24550000E2
:1039AC00FC11002098550000F1380000113900007E
:1039BC00A05500000012002000ED00E02055000092
:1039CC00BFF34F8F00BF064BDB6803F4E062044982
:1039DC00044B1343CB60BFF34F8F00BF00BFFDE719
:1039EC0000ED00E00400FA0582B01D4B1B68B3F13A
:1039FC00FF3F0AD11B4B1B68DBB201931A4B1B68B0
:103A0C001B0903F00F03009305E0154B1B68019392
:103A1C00164B1B680093019B062B1DD1009B033B8F
:103A2C00042B17D801A252F823F000BF4D3A000026
:103A3C00513A0000553A0000593A00005D3A000036
:103A4C0001230AE0012308E0012306E0012304E03E
:103A5C00012302E0012300E00023184602B0704766
:103A6C0030010010E00F00F0E80F00F034010010FE
:103A7C0082B0174B1B68DBB20193164B1B681B09FA
:103A8C0003F00F030093019B062B1DD1009B033BFE
:103A9C00042B17D801A252F823F000BFBD3A000046
:103AAC00C13A0000C53A0000C93A0000CD3A000006
:103ABC0001230AE0002308E0002306E0002304E0D1
:103ACC00002302E0002300E00023184602B07047F8
:103ADC00E00F00F0E80F00F082B01D4B1B68B3F153
:103AEC00FF3F0AD11B4B1B68DBB201931A4B1B68BF
:103AFC001B0903F00F03009305E0154B1B680193A2
:103B0C00164B1B680093019B062B1DD1009B033B9E
:103B1C00042B17D801A252F823F000BF3D3B000044
:103B2C00413B0000453B0000493B00004D3B000081
:103B3C0001230AE0012308E0012306E0012304E04D
:103B4C00012302E0012300E00023184602B0704775
:103B5C0030010010E00F00F0E80F00F0340100100D
:103B6C0082B0174B1B68DBB20193164B1B681B0909
:103B7C0003F00F030093019B062B1DD1009B033B0D
:103B8C00042B17D801A252F823F000BFAD3B000064
:103B9C00B13B0000B53B0000B93B0000BD3B000051
:103BAC0001230AE0002308E0002306E0002304E0E0
:103BBC00002302E0002300E00023184602B0704707
:103BCC00E00F00F0E80F00F082B01D4B1B68B3F162
:103BDC00FF3F0AD11B4B1B68DBB201931A4B1B68CE
:103BEC001B0903F00F03009305E0154B1B680193B1
:103BFC00164B1B680093019B062B1DD1009B033BAE
:103C0C00042B17D801A252F823F000BF2D3C000062
:103C1C00313C0000353C0000393C00003D3C0000CC
:103C2C0001230AE0012308E0012306E0012304E05C
:103C3C00012302E0012300E00023184602B0704784
:103C4C0030010010E00F00F0E80F00F0340100101C
:103C5C0082B0174B1B68DBB20193164B1B681B0918
:103C6C0003F00F030093019B062B1DD1009B033B1C
:103C7C00042B17D801A252F823F000BF9D3C000082
:103C8C00A13C0000A53C0000A93C0000AD3C00009C
:103C9C0001230AE0002308E0002306E0002304E0EF
:103CAC00002302E0002300E00023184602B0704716
:103CBC00E00F00F0E80F00F082B0174B1B68DBB28E
:103CCC000193164B1B681B0903F00F030093019B18
:103CDC00062B1DD1009B033B042B17D801A252F8D5
:103CEC0023F000BF053D0000093D00000D3D000024
:103CFC00113D0000153D000001230AE0002308E0FF
:103D0C00002306E0002304E0002302E0002300E08F
:103D1C000023184602B07047E00F00F0E80F00F0E7
:103D2C0082B01D4B1B68B3F1FF3F0AD11B4B1B68C4
:103D3C00DBB201931A4B1B681B0903F00F030093B2
:103D4C0005E0154B1B680193164B1B680093019BF8
:103D5C00062B1DD1009B033B042B17D801A252F854
:103D6C0023F000BF853D0000893D00008D3D000023
:103D7C00913D0000953D000000230AE0002308E07F
:103D8C00012306E0012304E0012302E0012300E00B
:103D9C000023184602B0704730010010E00F00F00D
:103DAC00E80F00F03401001082B01D4B1B68B3F11A
:103DBC00FF3F0AD11B4B1B68DBB201931A4B1B68EC
:103DCC001B0903F00F03009305E0154B1B680193CF
:103DDC00164B1B680093019B062B1DD1009B033BCC
:103DEC00042B17D801A252F823F000BF0D3E00009F
:103DFC00113E0000153E0000193E00001D3E000063
:103E0C0001230AE0012308E0012306E0012304E07A
:103E1C00012302E0012300E00023184602B07047A2
:103E2C0030010010E00F00F0E80F00F0340100103A
:103E3C0082B01D4B1B68B3F1FF3F0AD11B4B1B68B3
:103E4C00DBB201931A4B1B681B0903F00F030093A1
:103E5C0005E0154B1B680193164B1B680093019BE7
:103E6C00062B1DD1009B033B042B17D801A252F843
:103E7C0023F000BF953E0000993E00009D3E0000DF
:103E8C00A13E0000A53E000001230AE0012308E04A
:103E9C00012306E0012304E0012302E0012300E0FA
:103EAC000023184602B0704730010010E00F00F0FC
:103EBC00E80F00F03401001082B0154B1B68019321
:103ECC00144B1B680093019B062B1DD1009B033BDD
:103EDC00042B17D801A252F823F000BFFD3E0000BE
:103EEC00013F0000053F0000093F00000D3F0000AE
:103EFC0000230AE0002308E0002306E0012304E08D
:103F0C00012302E0012300E00023184602B07047B1
:103F1C00300100103401001082B0154B1B68019366
:103F2C00144B1B680093019B062B1DD1009B033B7C
:103F3C00042B17D801A252F823F000BF5D3F0000FC
:103F4C00613F0000653F0000693F00006D3F0000CD
:103F5C0000230AE0002308E0002306E0002304E02D
:103F6C00012302E0012300E00023184602B0704751
:103F7C00300100103401001008B5FFF7CDFF0346E7
:103F8C00002B07D04FF010234FF08042D3F80832AB
:103F9C00C2F8583500BF08BD00BF044BD3F800343D
:103FAC00002BFAD000BF00BF704700BF00E00140FB
:103FBC0000B583B00190054A019BC2F80435FFF7A8
:103FCC00EBFF00BF03B05DF804FB00BF00E0014055
:103FDC00024B034A1A6000BF704700BF000000206C
:103FEC000090D00308B5FFF7FFFC0346002B06D06A
:103FFC00964B1B681B0A964A03F01F031360FFF7CE
:10400C0037FD0346002B02D0924B934A1A60FFF700
:10401C0063FD0346002B06D0904B1B685B0B904A4C
:10402C0003F007031360FFF79BFD0346002B05D03D
:10403C008C4BDB688B4A23F08073D360FFF7C4FD95
:10404C000346002B0ED04FF080430022C3F80C2106
:10405C004FF080430022C3F810214FF08043002220
:10406C00C3F83825FFF7F4FD0346002B02D07E4B36
:10407C0003221A60FFF720FE0346002B0BD07B4B6C
:10408C0005221A607A4B01221A607A4B00221A60C0
:10409C00794B3F221A60FFF743FE0346002B76D084
:1040AC004FF08053754AD3F80434C2F820354FF0E2
:1040BC008053724AD3F80834C2F824354FF0805339
:1040CC006E4AD3F80C34C2F828354FF080536B4A43
:1040DC00D3F81034C2F82C354FF08053674AD3F81C
:1040EC001434C2F830354FF08053644AD3F8183486
:1040FC00C2F834354FF08053604AD3F81C34C2F800
:10410C0040354FF080535D4AD3F82034C2F8443523
:10411C004FF08053594AD3F82434C2F848354FF045
:10412C008053564AD3F82834C2F84C354FF080539C
:10413C00524AD3F82C34C2F850354FF080534F4AC2
:10414C00D3F83034C2F854354FF080534B4AD3F87F
:10415C003434C2F860354FF08053484AD3F83834C1
:10416C00C2F864354FF08053444AD3F83C34C2F85B
:10417C0068354FF08053414AD3F84034C2F86C355F
:10418C004FF080533D4AD3F84434C2F87035FFF7F2
:10419C000BFE0346002B05D0394B1B68394A03F044
:1041AC004F031360FFF744FE0346002B0DD04FF076
:1041BC008043D3F8003403F00103002B05D04FF0FB
:1041CC0080436FF00102C3F80024FFF775FE03462D
:1041DC00002B05D02C4B1B682B4A43F480631360D7
:1041EC002A4BD3F88830294A43F47003C2F888303C
:1041FC00BFF34F8F00BFBFF36F8F00BFFFF7BCFE45
:10420C004FF01023D3F80032002B05DB4FF01023B6
:10421C00D3F80432002B15DA0120FFF7C9FE4FF05A
:10422C0010231522C3F80022FFF7B6FE4FF010231F
:10423C001522C3F80422FFF7AFFE0020FFF7B8FEEB
:10424C00FFF7BEFBFFF7C4FE00BF08BD2403001040
:10425C004035014074C007400DF0ADBA4402001067
:10426C003C050040F0ED00E0A00500401056004079
:10427C0088560040185600401456004000C00040BC
:10428C0058020010E40E00403C17004000ED00E026
:10429C00F8B51D4617460C460646184600F04AFD72
:1042AC00002803D407FB04F2A24201D20020F8BD7F
:1042BC002846314600F058FDB0FBF4F0F8BD000084
:1042CC00411C82070CD010F8012B3AB3820707D09F
:1042DC0010F8012B12B3820702D010F8012BEAB1AF
:1042EC004FF0013C50F8042BCCFA52F37BB950F848
:1042FC00042BCCFA52F353B950F8042BCCFA52F3EA
:10430C002BB950F8042BCCFA52F3002BEAD004381A
:10431C001BBAB3FA83F300EBD3000130401A704799
:10432C0072B3844690EA01039B0721D1830709D01D
:10433C0011F8013B00F8013B013A20D08307F7D17B
:10434C0000E08446202A0AD32DE9F007B1E8F807EB
:10435C00A0E8F807203A202AF8D2BDE8F007042A92
:10436C0006D351F8043B40F8043B043A042AF8D233
:10437C002AB111F8013B00F8013B013AF9D1604632
:10438C00704700BF00220B0011001A0084465AB37C
:10439C00830704D000F8011B013AF9D124E0C9B21B
:1043AC0041EA012141EA0141202A11D3203A2DE9A9
:1043BC00F0030B460C460D460E460F4688468946C2
:1043CC00A0E8FA03203AFBD2BDE8F00320320BD070
:1043DC00042A05D340F8041B043A05D0042AF9D268
:1043EC0000F8011B013AFBD16046704700B539B1AA
:1043FC0002782AB1D0F800E0042903D203460CE07D
:10440C00002000BD4FF0013C0346CCFA5EF222B90D
:10441C0053F804EF04390329F7D8181A4FF0013276
:10442C00C2FA5EF292FAA2F2B2FA82F2B1EBD20FB7
:10443C0028BFD108084400BD10B582B004460069FD
:10444C008DF8071078B1D4E900239A421CD2626926
:10445C00531C63618154D4E90501884214D1204670
:10446C0000F032F810E0D4F80CC0BCF1000F10D002
:10447C00D4E90023501C984204BF00218DF807108A
:10448C009A4238BF0CF8021020680130206002B04C
:10449C0010BDA06858B1D4E9002C6245F4D2531C6D
:1044AC00B3EB0C0318BFCBB240F82230ECE7236A15
:1044BC00002BE9D0D4E900018842E5D20DF10701C7
:1044CC00204601229847DFE710B5426932B1044615
:1044DC00036A0BB1216998470020606110BD70B56B
:1044EC00012AB8BF70BD0C460546561C284621460D
:1044FC00FFF7A2FF013E012EF8D870BDCB0648BFD6
:10450C00704789054CBF30212021FFF7E8BF70B5FB
:10451C0014460D46064600F0A9FB014630462A46D5
:10452C002346BDE8704000F000B82DE9F04F03AF12
:10453C008DB047F83C3C91460E46044600F012FC08
:10454C000546EB46073020F00700ADEB0008C546EA
:10455C00A7F1380A504600212422FFF717FF44F236
:10456C00A350C0F2000047E907606FF0004047F825
:10457C00340C47F8144C47F8205C47F8288C50460C
:10458C00494657F83C2C00F021F8DD46A7F10C0405
:10459C00A546BDE8F08F436A08460121FFF778BEB7
:1045AC0083B000B582B00DF10C0C8CE80E0040F21B
:1045BC002002C2F200020146106803AA0192FFF722
:1045CC00A6FF02B0BDE8004003B070472DE9F04FE4
:1045DC008DB00692894683460020CBF800000DF181
:1045EC001E04A4F10108CDF81080CDF804B019F820
:1045FC00011B252906D0002900F089825846FFF7B7
:10460C001BFFF4E70027484619F8012BA2F1200301
:10461C00102B0DD88021DFE803F0091B1B191B1B85
:10462C001B101B1B31131B151B1B170040210DE00E
:10463C005E2A0DD14FF4805108E04FF4004105E0A3
:10464C00202103E0102101E04FF400710F43DAE761
:10465C0000F10109A2F13000C0B209281DD80021D7
:10466C0019F8010B01EB810102EB41013039A0F18A
:10467C003002D2B20A2A0246F2D30BE0069A52F862
:10468C00041B0692002944BF47F0100749424278A8
:10469C0000F1020921EAE17A01E04FF0000A2E2A2A
:1046AC000DD1484610F8012B2A2A0AD1069899F800
:1046BC00012050F8045B069009F1020916E0002570
:1046CC001CE0A2F13001C9B20025092913D810F859
:1046DC00011B05EB850302EB4302A2F13005A1F1AE
:1046EC003002D2B20A2A0A46F1D38146002D58BFB5
:1046FC0047F4807702E0814647F48077A2F16800A6
:10470C00C1B2C00140EA5100C0B209282AD8DFE882
:10471C0000F00814172929290529290519F8012B56
:10472C0020E0484610F8012B682A15D199F8012091
:10473C0009F1020947F0080714E019F8012B08E009
:10474C00484610F8012B6C2A09D199F8012009F17F
:10475C00020947F0020705E047F0040701E047F0C3
:10476C0001078146622A15DDA2F1630015283FF688
:10477C003EAFDFE800F0240C0B0B0B0B0C0B0B0B00
:10478C000B37434D0B0B5B0B6A0B0B172FE747F4E7
:10479C0080475EE0252A00F0A980582A40F07C81F1
:1047AC0047F40057F8054FEA076048BF27F4007735
:1047BC00782A43F2580108BF43F2780125E0069DA0
:1047CC00A0462C78AAF10106584639463246FFF726
:1047DC0095FE584621464446DDF81080FFF72CFE26
:1047EC0028467FE1380700F15B81B80700F185812D
:1047FC00069A1068DBF80010016056E1F8054FEAE4
:10480C00076048BF27F40077302101EAE07321E00C
:10481C003806232101EAE070059047F48077069A68
:10482C00002152F8040B06920825CEE00698046885
:10483C00002C04BF45F2C554C0F20004F80500F189
:10484C0036812046FFF73CFD35E1F80548BF27F4DB
:10485C000077002307F002007904059305D4AC46D9
:10486C0050B90698031D00210DE0A8B9069951F81E
:10487C00040B0691C11717E00698073020F00700CB
:10488C0000F10803416800687D0715D417F008058E
:10489C001CBFC0B2002111E00698073020F00703BE
:1048AC00596853F8080B06937B070AD417F00803D2
:1048BC001CBFC0B2002107E080B200210693654600
:1048CC001BE040F3C03100B2002909DBBB0612D457
:1048DC007B06A446059C48BF2024059464460CE046
:1048EC000023404263EB01012D2305E058462521AE
:1048FC00FFF7A2FD7BE62B230593FB0548BF27F4AE
:10490C000077FB0558BF012500266E2A23DD6F3A80
:10491C00092A00F28080DFE802F005587E7E7E7E58
:10492C00247E7E5850EA010274D0AC46C20842EA9A
:10493C00417200260625134665F3DF00A0550136AB
:10494C0052EAD1004FEAD1014FEAD20040EA41725B
:10495C001846F0D15CE0582A37D0642A18BF692A6F
:10496C0059D150EA010255D0CDE9025AA24607F4BA
:10497C00004B00260C460546BBF1000F09D006F093
:10498C000300032805D1D0462C200AF80600013676
:10499C0000E0D046284621460A22002300F0CEF83B
:1049AC0000EB8002A5EB420242F0300208F8062030
:1049BC000136D5F109024FF00002A241DAD3544678
:1049CC00DDE903A8DDE901B525E050EA010221D0BB
:1049DC00AC46BA0445F2A552C0F200025CBF45F2E7
:1049EC00B552C0F200024FEA101343EA01734FF0C4
:1049FC00000600F00F051846535DA355013650EA2A
:104A0C0011134FEA11114FEA101343EA0173F0D15D
:104A1C00654600E00026AAEB06000599FF2988BF31
:104A2C00013800290A4618BF0122801AAA1B22EA63
:104A3C00E275A0EB050AB80507D45846394652462C
:104A4C00FFF75CFD05994FF0000AFF2904D9090A0C
:104A5C005846FFF7F1FC059911B15846FFF7ECFCED
:104A6C00584639465246FFF749FD584630212A46EA
:104A7C00FFF735FD012E06DB18F806105846FFF738
:104A8C00DBFC013EF8D8F8067FF5B1AD5846202185
:104A9C005246FFF724FDAAE5002A7FF4A8AD47E0B3
:104AAC00069A1068DBF80010017010462CE02046C6
:104ABC002946FFF79BFC054627F40077AAEB000676
:104ACC00584639463246FFF719FD35B114F8011B2B
:104ADC005846FFF7B1FC013DF8D1DDF8108006987F
:104AEC000DF11E0404300690F8067FF580AD584693
:104AFC0020213246FFF7F3FC79E5069BDBF800102A
:104B0C001868002206C01846043006906FE5DBF8E2
:104B1C000C0028B1DBE9001291423CBF0022425448
:104B2C005846FFF7D1FCDBF800000DB0BDE8F08F64
:104B3C005846FFF7C9FC4FF0FF30F6E7002B35D194
:104B4C0029B9B0FBF2FC0CFB120260467047914293
:104B5C0015D22DE9F041B2FA82F39A409940D3F183
:104B6C00200C30FA0CFC51EA0C01984000F04EF885
:104B7C00280036FA03F200210023BDE8F081F0B5DD
:104B8C00B1FBF2FC0CFB1211B2FA82F39A40994081
:104B9C00D3F1200630FA06F63143984000F036F88F
:104BAC00614628003200DA400023F0BDF3B5B3FAB9
:104BBC0083FC49085FEA300013FA0CF3DCF12004A3
:104BCC0032FA04F423430CB41A0000F01FF80CBCA6
:104BDC0033FA0CF3DCF11F0C35FA0CF518BF013D60
:104BEC0003BCA5FB026705FB0377801BB941904210
:104BFC0071EB030C05D3821A71EB0303681C0021C3
:104C0C00F0BD02000B0028000021F0BD940D4FF602
:104C1C00C2752D02B5FBF4F4D60A013604FB04F57B
:104C2C00A5FB0656F64306EB0416550832BF0027C3
:104C3C007708013505FB1677A6FB07477F0807EBBE
:104C4C00C63714001500E7FB02457F1B4D1C040002
:104C5C00E7FB014505FB1206A64284BF013DB618D1
:104C6C00964224BF0135B61A704700BF41F20421A9
:104C7C00C2F20001086800B1704740F20400C2F2B1
:104C8C000000086070479AB18446097848B2002841
:104C9C0044BF6FF001007047BCF1000F18BFCCF897
:104CAC0000100021C3E90011002818BF0120704733
:104CBC00002070477F298EBF6FF00100017001202A
:104CCC0070477F2884BF0020704745F2E072C0F225
:104CDC000002515C45F26072C0F20002105C0840A8
:104CEC007047A0F161011A2938BF20387047A0F134
:104CFC0041011A2938BF203070477F2884BF00201B
:104D0C00704745F2E072C0F20002515C45F26072ED
:104D1C00C0F20002105C08407047A0F161011A2932
:104D2C0038BF20387047A0F141011A2938BF203014
:104D3C0070470000084B1B6883420AD0074B1B6866
:104D4C00834206D0064B1B68181A18BF4FF0FF3071
:104D5C0070470020704700BF1C000020200000207E
:104D6C001800002040207047006800F0D5B800BF44
:104D7C001448154A032110B50161144C41614FF4DC
:104D8C00806182610023C4610162114C8362102135
:104D9C004362C3620266446681660367C366436707
:104DAC00BFF35F8F0B4B5321A3F10F0E9C4601E019
:104DBC0013F80119ACEB030273458154F8D1BFF31E
:104DCC005F8F10BD14120020F0570000CC12002091
:104DDC00BC1200200A5800002DE9F843C568D0F831
:104DEC000890A9EB050890450446164609D9406879
:104DFC002844FFF795FABFF35F8F3544E560BDE8B3
:104E0C00F8834068284435440F464246A5EB090513
:104E1C00FFF786FA60682A4607EB0801FFF780FA6D
:104E2C00BFF35F8FE560BDE8F88300BF2DE9F84361
:104E3C000646D0E90204894617464FF0000833694C
:104E4C009C4203F1FF3228BF03F1FF33A0EB0405B2
:104E5C002ABF1B18131B1B1BBD4228BF3D469D427E
:104E6C00706828BF1D46494620442A46FFF758FA69
:104E7C00B0682C44A844A9447F1BA04208BF00245E
:104E8C00BFF35F8FF460002FD9D14046BDE8F883A3
:104E9C0038B5204B00EB400403EBC40E0130DEF8B8
:104EAC002C4000EB4000012C8C46154603EBC00057
:104EBC0005D0022C2AD0B4B10024204638BDDEF82F
:104ECC002830DEF82440A3429CBFDEF820105B188B
:104EDC00013B1C1B944228BF144622466146FFF737
:104EEC007BFF204638BDDEF82830DEF824209342C4
:104EFC009CBFDEF820105B18013B9A1A9542DCD857
:104F0C002A466146FFF768FF2C46D6E7BDE83840D5
:104F1C00FFF78CBF14120020F8B50B4B1B7804461E
:104F2C000D4616466BB1EFF311874FF0200181F35C
:104F3C001188324629462046FFF7AAFF87F31188CD
:104F4C00F8BDFFF715FFEEE714120020072904D96E
:104F5C000023024AC0E9003110607047CC160020D3
:104F6C002E2E2F2E2E2F2E2E2F2E2E2F2E2E2F2E50
:104F7C002E2F6D6F64756C65732F6E7266782F684B
:104F8C00616C2F6E72665F6770696F2E680000002F
:104F9C00433A5C6E72665F73646B5C4465766963FE
:104FAC0065446F776E6C6F6164202832295C6E5299
:104FBC0046355F53444B5F31372E312E305F64647E
:104FCC0064653536305C6E5246355F53444B5F3109
:104FDC00372E312E305F646464653536305C636F18
:104FEC006D706F6E656E74735C626F617264735C0E
:104FFC00626F617264732E6300000000111213144F
:10500C000D0E0F10433A5C6E72665F73646B5C44FA
:10501C006576696365446F776E6C6F6164202832C6
:10502C00295C6E5246355F53444B5F31372E312E1F
:10503C00305F646464653536305C6E5246355F5360
:10504C00444B5F31372E312E305F646464653536E6
:10505C00305C65787465726E616C5C6672656572E5
:10506C00746F735C736F757263655C706F7274616F
:10507C00626C655C4D656D4D616E675C68656170F9
:10508C005F312E6300000000433A5C6E72665F7302
:10509C00646B5C446576696365446F776E6C6F61B5
:1050AC0064202832295C6E5246355F53444B5F3185
:1050BC00372E312E305F646464653536305C6E5249
:1050CC0046355F53444B5F31372E312E305F64646D
:1050DC0064653536305C65787465726E616C5C66DF
:1050EC0072656572746F735C706F727461626C65FB
:1050FC005C434D5349535C6E726635325C706F7213
:10510C00745F636D7369732E630000002E2E2F2E57
:10511C002E2F2E2E2F2E2E2F2E2E2F2E2E2F6D6F1E
:10512C0064756C65732F6E7266782F68616C2F6E68
:10513C0072665F7274632E6800000000433A5C6E06
:10514C0072665F73646B5C446576696365446F7704
:10515C006E6C6F6164202832295C6E5246355F5349
:10516C00444B5F31372E312E305F646464653536C5
:10517C00305C6E5246355F53444B5F31372E312EC7
:10518C00305F646464653536305C65787465726E66
:10519C00616C5C6672656572746F735C736F75724B
:1051AC0063655C71756575652E630000433A5C6ED2
:1051BC0072665F73646B5C446576696365446F7794
:1051CC006E6C6F6164202832295C6E5246355F53D9
:1051DC00444B5F31372E312E305F64646465353655
:1051EC00305C6E5246355F53444B5F31372E312E57
:1051FC00305F646464653536305C65787465726EF6
:10520C00616C5C6672656572746F735C736F7572DA
:10521C0063655C7461736B732E63000049444C4589
:10522C0000000000546D722053766300433A5C6EAC
:10523C0072665F73646B5C446576696365446F7713
:10524C006E6C6F6164202832295C6E5246355F5358
:10525C00444B5F31372E312E305F646464653536D4
:10526C00305C6E5246355F53444B5F31372E312ED6
:10527C00305F646464653536305C65787465726E75
:10528C00616C5C6672656572746F735C736F75725A
:10529C0063655C74696D6572732E6300546D725135
:1052AC0000000000433A5C6E72665F73646B5C4492
:1052BC006576696365446F776E6C6F616420283224
:1052CC00295C6E5246355F53444B5F31372E312E7D
:1052DC00305F646464653536305C6E5246355F53BE
:1052EC00444B5F31372E312E305F64646465353644
:1052FC00305C636F6D706F6E656E74735C6C69623D
:10530C007261726965735C7574696C5C6170705FF5
:10531C007574696C5F706C6174666F726D2E63006E
:10532C00433A5C6E72665F73646B5C44657669636A
:10533C0065446F776E6C6F6164202832295C6E5205
:10534C0046355F53444B5F31372E312E305F6464EA
:10535C0064653536305C6E5246355F53444B5F3175
:10536C00372E312E305F646464653536305C696E7F
:10537C00746567726174696F6E5C6E7266785C6C72
:10538C0065676163795C6E72665F6472765F636C8D
:10539C006F636B2E630000002E2E2F2E2E2F2E2EC1
:1053AC002F2E2E2F2E2E2F2E2E2F696E7465677298
:1053BC006174696F6E2F6E7266782F6E7266785F8D
:1053CC00676C75652E680000433A5C6E72665F739D
:1053DC00646B5C446576696365446F776E6C6F6172
:1053EC0064202832295C6E5246355F53444B5F3142
:1053FC00372E312E305F646464653536305C6E5206
:10540C0046355F53444B5F31372E312E305F646429
:10541C0064653536305C6D6F64756C65735C6E728B
:10542C0066785C647269766572735C7372635C6EC9
:10543C007266785F636C6F636B2E63002E2E2F2E5B
:10544C002E2F2E2E2F2E2E2F2E2E2F2E2E2F696EF0
:10545C00746567726174696F6E2F6E7266782F6EE9
:10546C007266785F676C75652E6800002E2E2F2E85
:10547C002E2F2E2E2F2E2E2F2E2E2F2E2E2F6D6FBB
:10548C0064756C65732F6E7266782F68616C2F6E05
:10549C0072665F6770696F2E68000000433A5C6E3D
:1054AC0072665F73646B5C446576696365446F77A1
:1054BC006E6C6F6164202832295C6E5246355F53E6
:1054CC00444B5F31372E312E305F64646465353662
:1054DC00305C6E5246355F53444B5F31372E312E64
:1054EC00305F646464653536305C6D6F64756C6513
:1054FC00735C6E7266785C647269766572735C73E9
:10550C0072635C6E7266785F6770696F74652E6328
:10551C000000000061626300433A5C6E72665F7368
:10552C00646B5C446576696365446F776E6C6F6120
:10553C0064202832295C6E5246355F53444B5F31F0
:10554C00372E312E305F646464653536305C6E52B4
:10555C0046355F53444B5F31372E312E305F6464D8
:10556C0064653536305C6578616D706C65735C6D47
:10557C007970726F6A6563745C6672656572746F5C
:10558C00735C6D61696E2E63000000004C45443005
:10559C00000000004C454431003031323334353694
:1055AC00373839414243444546303132333435364D
:1055BC00373839616263646566286E756C6C2900D6
:1055CC00D855000008570000DC55000043000000CF
:1055DC00CF4C0000EF4C0000FB4C0000074D0000CE
:1055EC00274D0000334D0000C14C0000934C0000CF
:1055FC0053756E004D6F6E005475650057656400F1
:10560C00546875004672690053617400004A616EFB
:10561C0000466562004D617200417072004D617907
:10562C00004A756E004A756C0041756700536570D1
:10563C00004F6374004E6F760044656300002E00CB
:10564C000053756E646179004D6F6E64617900541E
:10565C00756573646179005765646E65736461790F
:10566C00005468757273646179004672696461797B
:10567C0000536174757264617900004A616E7561E2
:10568C007279004665627275617279004D61726360
:10569C006800417072696C004D6179004A756E65E5
:1056AC00004A756C790041756775737400536570A9
:1056BC0074656D626572004F63746F626572004E43
:1056CC006F76656D62657200446563656D626572C7
:1056DC000000414D00504D0000256D2F25642F25F5
:1056EC00790025483A254D3A25530025612025623D
:1056FC002025652025542025590000004A5600001D
:10570C004C5600004C5600004C5600004C56000005
:10571C004C5600004C5600004C5600004C560000F5
:10572C004C560000FFFFFFFFFFFFFFFFFFFFFFFFD7
:10573C00FFFF00004D560000FC550000875600008E
:10574C0019560000DE560000E5560000EE5600002B
:10575C00F756000020202020202020202068282818
:10576C00282820202020202020202020202020201D
:10577C0020202020481010101010101010101010A5
:10578C001010101084848484848484848484101085
:10579C0010101010108181818181810101010101A2
:1057AC0001010101010101010101010101010110CE
:1057BC001010101010828282828282020202020277
:1057CC00020202020202020202020202020202109F
:1057DC001010102000070320041702010857104076
:1057EC00800000005465726D696E616C00000000F1
:1057FC0000000000000054545220524547474553C6
:01580C00009B
:105810000090D003CC550000CC550000CC550000C2
:10582000CC550000CC550000081200200C120020BE
:045830001012002032
:040000030000037185
:00000001FF
